:1000000000500020051C0000FF1B0000011C000028
:10001000031C0000031C0000031C00000000000083
:10002000000000000000000000000000031C0000B1
:10003000031C000000000000031C0000031C000063
:1000400079090000031C0000031C0000031C0000D1
:100050005105000039080000031C0000031C0000CB
:10006000031C0000E9250000031C0000031C000025
:10007000031C0000031C0000031C0000031C000004
:10008000031C0000031C0000031C0000031C0000F4
:10009000031C0000031C0000031C0000031C0000E4
:1000A000031C0000031C0000031C0000031C0000D4
:1000B000031C0000031C0000031C0000031C0000C4
:1000C000031C0000031C000007B5042840D8DFE82B
:1000D00000F0030A1A212500204B0020196801F0C6
:1000E000A5FB1F4B18601E4B1E4A1B68991C116014
:1000F0001D4ADB7812789A4224D1022000F0C4FF16
:10010000002000F0C1FF0120184901F057FE042033
:1001100000F0BAFF0320164901F050FE114B0420F5
:1001200019688B7811F8032B0091124901F046FEF3
:100130000B4B186801F0D0FA002003B05DF804EB17
:1001400000F0A2BF302B01D0002BD9D10320D5E77E
:1001500003B05DF804EB00F00FBF00BF20010020EA
:100160000C01002014010020080100205C41000067
:10017000654100007041000070B5054630BB154B6D
:1001800015491B6822229E680968034601F08EFB10
:10019000044605803378F11C83707378053000F8CD
:1001A000023CB37800F8013C00F0F3FF0B4A204614
:1001B00013680133136001F08FFA2846084901F0F3
:1001C000FDFD2846BDE8704001F0A4B8BDE87040D0
:1001D00000F0D2BE3C010020200100201C010020C4
:1001E0009441000013B5092800F2B180DFE800F067
:1001F00005313A52566A6E7F839301220024574B91
:100200001E201A70564B1C6001F0ACF8554BFA21B9
:100210001860204602F01EFA5349204601F0F4FA15
:10022000224621464FF6FF7001F08EFA4F4AA04257
:10023000106006DA4E4801F00FF90A204D4900F02F
:1002400025F90421224601F0A5FB21464A4801F088
:10025000DDF80022494B01201A70404B48491A78BA
:1002600001F0ACFD47490DF10702022001F0D0FD7D
:100270009DF8070003F068FFC0B243288DF807001F
:1002800005D044285BD042285BD1072000E0032042
:1002900000F0FAFE03203C4901F090FD2F4C0420B1
:1002A00022463A4901F0B4FD2378013B182B06D9C8
:1002B0000420374901F082FD032000F0E5FE012013
:1002C00000F0E2FE0520334901F078FD2B4C0620BA
:1002D00022462E4901F09CFD2378013B182B06D9BC
:1002E00006202B4901F06AFD052000F0CDFE072015
:1002F000294901F063FD1B4C1B22216808200331B2
:1003000001F0B6FD2068033000F03CFF1A28C2BFA0
:10031000002223685A77134B204819680F4B1B782B
:100320000B70164B1B784B700D4B1B688B7001F0DC
:100330006DF8012100F0E6FE70B100F04FFC0520E1
:10034000A6E70220164901F039FD0120A0E702B01E
:10035000BDE8104000F010BE02B010BD0801002042
:100360001C010020100100200C4E00002001002084
:10037000A5410000C0410000C90000001801002094
:10038000CB4100003142000048420000934400008D
:100390005E4200006B4200008642000079010000CE
:1003A000344200000146014800F008BF3907000050
:1003B00082B0ADF80600BDF806309BB20BB902B0B2
:1003C000704704231A46013B9BB2002AFAD1BDF8BC
:1003D0000630013B9BB2ADF80630ECE707B5ADF84F
:1003E0000600BDF806309BB213B903B05DF804FBFC
:1003F00040F2E730FFF7DCFFBDF80630013B9BB26F
:10040000ADF80630EDE7000038B5C307044605D562
:100410000C4BDA78012A84BF0122DA704FF0805544
:10042000D5F8B83120465B699847D5F8B8312046F1
:100430005B6B98470128F8D1024B586804435C6015
:1004400038BD00BF4801002038B54FF08055D5F8C1
:10045000B83104469B699847D5F8B83120465B6BA4
:1004600098470228F8D114F0010F074B06D099786D
:10047000DA78914282BF9A78D2B2DA70586820EA6C
:1004800004045C6038BD00BF480100200A4608B57E
:100490000146104800F0E0FF72B640260E4C802561
:1004A0000E49C4F89060C4F890500B780B78C820BF
:1004B0006FF307130B70FFF791FFC4F8A060C4F847
:1004C000A0500B780B78C8206FF307130B70FFF761
:1004D00085FFE4E79242000000200240480100202E
:1004E00010B50B4B1C880B4B18880B4B001B84B2B0
:1004F0001C8002F0CFFD0122000C084B40EA0140B5
:1005000000EB84109861064BC3F8802210BD00BF39
:1005100044010020400100202C010020002009405F
:1005200000002443002310B5074CC4F8C03202F089
:10053000B1FD000C054B40EA014040301862012338
:10054000C4F8C03210BD00BF0000244300200940A1
:1005500010B53E4B586800F00112C4035A6044D5F0
:100560003B4B1968002956D00A88002A51D0013A1D
:100570000A8000225C6894B1218811B100220139FF
:1005800021809C685CB1218811B100220139218051
:10059000D96821B10B8813B10022013B0B802D4B90
:1005A000197809094CD059784A1CD2B25A70E1B96D
:1005B0001A7812F0080F1A782FD0D10642BF4021C6
:1005C000254AC2F890101A78920642BF8021224A2A
:1005D000C2F890101A781A781A786FF3C3021A705A
:1005E0001A78520701D5C8225A70C30710D50021C6
:1005F0001A4B1B4A1B48C3F88012038814881180C9
:100600002344144A9BB20380137843F0020313700F
:1006100010BD0122AEE70122C1E7D40642BF40214E
:100620000D4AC2F8A0101A78910642BF80210A4AEA
:10063000C2F8A0101A781A781A7842F00802CEE7A9
:10064000002AD2D0054BC3F8C012CEE700200940E3
:1006500050010020480100200020024000002443F7
:100660002C01002042010020F8B500260F4B104F4E
:10067000C3F880623D889DB1A0B10E4B9C6902F029
:1006800009FD800D40EA8120C4F38F1480B2241A42
:100690002C1B3546084B3E801A881444A4B21C809B
:1006A0002846F8BD0125C3F88052F9E7000024432D
:1006B0002C010020002009404201002070B54FF0BD
:1006C00080560F4CD6F8D0310546DB682046984757
:1006D0006422D6F8D03120465E686A436023094917
:1006E000B047E36A012043F01003E362236B43F455
:1006F000407343F001032363034B1D8070BD00BFB3
:1007000000100040006CDC0234010020074B084957
:10071000DA6A42F01002DA6212225A631A6B22F489
:1007200040421A63034B1888FFF7C8BF001000400F
:10073000240100203401002001302DE9F0410D4654
:10074000144603286AD8DFE800F04D1043563B6892
:10075000013E05F8013B16B1BB69D806F7D5A642A4
:1007600008D0A41B2046BDE8F08116464FF0805803
:100770002C4FF0E7D8F8B03115205B699847BB697A
:10078000D90605D4D8F8B03115201B699847E2E79F
:10079000254A937943F080036FF001049371E1E7F8
:1007A00015F8013B013E3B6016B1BB699A06F7D5CF
:1007B000A642D6D1D8F8B03115205B699847BB69FD
:1007C0009B060AD4D8F8B03115201B699847EBE78F
:1007D00016464FF08058134FE6E7134A937943F0DB
:1007E0004003D9E74FF08053D3F8B03115201B698F
:1007F00098470024B6E7012A09D10B492888FFF75A
:100800005DFF0028AED103200849FFF73FFE022A12
:1008100004D1074B01241B880B80A3E70220054964
:10082000F3E700BF0010004024010020A1420000B7
:1008300034010020A542000040F2F27230B5294B8D
:100840005A649B69DC0623D4274B9A7910061FD57E
:100850009A7902F07F029A71244A137843F00203D6
:100860001370234B1A689AB11046002330F8101BFE
:1008700001F00701994209DD50F83340013314F5C6
:10088000817FF7D102EBC3039B881380D26AEAE72A
:10089000144B9B69990624D4134B9A79520620D5A0
:1008A0006FF480749A7902F0BF029A710F4A13783C
:1008B00043F0020313700E4B1A6892B110460023E6
:1008C00030F8101B01F00701994208DD50F8335051
:1008D0000133A542F8D102EBC3039B881380D26A8F
:1008E000EBE730BD0010004024010020480100204B
:1008F0003801002070B572B601210D4E0D4D3388C0
:100900000D4C1B0A01FA03F2C5F8E020DA017388E6
:1009100002F181721B0A9940DB0103F181732243CA
:1009200023431060C5F8E010186062B670BD00BFC8
:100930002E4400000020024048000042F0B572B68C
:1009400000220126094F0A4C0A49BB5C013203F020
:100950007F0306FA03F5DB0103F181730B43042ADD
:10096000C4F8E0501860F0D162B6F0BD2944000030
:10097000002002404800004238B5254BD3F8E03053
:1009800013F4C04F1ED00020FFF7B4FF214B224CC0
:100990001A6892B11046002330F8101B01F00701CD
:1009A000994208DD50F833500133A542F8D102EBEB
:1009B000C3039B881380D26AEBE7184A137843F08D
:1009C00002031370124BD3F8E03013F0F05F1DD028
:1009D000104B134C186890B10146002331F8102BCE
:1009E00002F007029A4208DD51F833500133A54264
:1009F000F8D100EBC3039B880380C06AEBE7FFF7E5
:100A00009DFF064A137843F00203137038BD00BF00
:100A100000200240380100202E4400004801002040
:100A2000294400002DE9F0414FF080540420FFF7E5
:100A3000EBFCD4F8B8314FF4A060DB699847D4F8E8
:100A4000B8314FF4A0605B6A9847D4F8B8314FF4DE
:100A5000A060DB6A012598470020504B504FDFF81B
:100A600044C1DFF844E1514C9D6257F8042B01303A
:100A7000C2F3C443990001F1804606F5012602EA5B
:100A80000C08C6F80080160644BF41EA0E010D604E
:100A900005FA03F352064CBFC4F89030C4F8A030F6
:100AA0001128E2D1402580264149C4F89050C4F86D
:100AB00090600B780B78C8206FF307130B70FFF76B
:100AC0008DFCC4F8A050C4F8A0600B780B78394EA8
:100AD0006FF30713C8200B70FFF780FC75620125C8
:100AE0004FF08054344B1420C3F8C852334B33605A
:100AF000D4F8B0311B69984700F0C0FBD4F8B0318E
:100B000010201B6998470220FFF77EFCD4F8B8310B
:100B10004FF40070DB699847D4F8B8314FF4007097
:100B20005B6A9847D4F8B8314FF40070DB6A984795
:100B300060221A4B9D62224B1A80FFF7E7FD01F0FD
:100B400029F901F031F903F0C7F9082818D11D4B34
:100B5000DD60A3F580439D60F36A0020FFF722FC6F
:100B6000194A1520936B43F0700393634FF0805341
:100B7000D3F8B0311B699847BDE8F041FFF7D2BC0C
:100B8000124800F069FC124800F066FC1149124856
:100B9000C1F5984189B200F05FFCDEE700200860F3
:100BA000104300003F7F077F001A444200200240AC
:100BB00048010020002009400000244303000500F4
:100BC0003401002000400940001000409341000023
:100BD000A94200003C020020F54200002DE98848AF
:100BE000874B00AF83F30888A3F58053D3F8FC2B21
:100BF000844B9A422AD1DFF8108200214FF6FF7011
:100C000000F0DCF9814B1B68C8F80030D8F80030E0
:100C100003BB7F4CDFF8FCA172B623789807C3F3BF
:100C2000400500F1E780DAF80030E2780133012A6C
:100C3000CAF80030D3B217D0022B3DD0002B40F0C1
:100C4000AB8030BF62B600BF00BFE5E70B20724942
:100C5000FFF71CFC5A682AB11888040702D1000962
:100C60009047CAE7DB6ACFE76C4B2020D3F88C2192
:100C700042F00102C3F88C21D3F8242242F003028F
:100C8000C3F824224FF08053D3F8B8319B699847BA
:100C9000634BDB6A4FF0E023D3F8102D42F00402DF
:100CA000C3F8102D30BFD3F8102D22F00402C3F882
:100CB000102D5B4BDB6AC5E701264FF08059594B7D
:100CC000DFF864B1DD60CBF80052A3F50053DA6AB7
:100CD000564A96626068D9F8B82140F020009269BF
:100CE0009047534A4D4BC2F88061D3F82422032128
:100CF00022F00302C3F82422D9F8D8214D485268C3
:100D00009047284602F0A8FF454BDB6A4FF0E023EE
:100D1000D3F8102D42F00402C3F8102D30BFD3F8E1
:100D2000102D314622F00402C3F8102DD9F8D83125
:100D300040485B689847394AD2F8243243F00303AD
:100D4000C2F82432CBF8006202F57042536999066A
:100D5000FCD54FF08055D5F8B83160685B6998478D
:100D6000D5F8B83160685B6B98470128F8D100224C
:100D70002E4B98622E4BC3F880212A4BD860A3F5E6
:100D80000053DB6A03F078F8FFF7C0FC2A4A936B44
:100D900043F07003936355E74FF08053D3F8A031CD
:100DA0000120DB6898474FF03F31244B1A6922F04D
:100DB00001021A611A6C22F480721A64204A1160CE
:100DC0005160A2F58052D16A17491D64C1F82054C0
:100DD00001219961D26A5A699206FCD40122144B0E
:100DE0003720C3F888214FF08053D3F8B8319B697E
:100DF00098474FE723786FF34103237062B6FCE610
:100E00000050002079B778A73C010020380100206D
:100E100048010020300100200C4300000020084061
:100E200000200940004009400000224300200860E3
:100E3000000004430040034000100040001009403F
:100E40000030094010B5134B1349144A43F8041BF2
:100E50009342FBD14FF08054FFF7E4FD00F0CEFE4B
:100E6000D4F88431292100201B689847D4F88431B4
:100E700020211B68012098470021094800F0C6FA8C
:100E8000084B00211860102000F04EF962B6FFF701
:100E9000A5FE00BFFC4B002079B778A7BC4F00200F
:100EA000E50100003C01002070B50D4B46681A6852
:100EB000AAB1144634F8101B002301F0070101E029
:100EC000B54206D0994208DD54F833500133A842A8
:100ED000F6D102EBC3039B881380D26AE8E770BDAA
:100EE000380100201D4A30B5144613683BB9236809
:100EF0001A4A53BB03601A4B1060436030BD53E97C
:100F00000115013103EB810188420BD1156050F8C6
:100F1000040C53F8041C01441846013143F8041C26
:100F20001B68E3E750F8041C013100EB81018B42A0
:100F300003BF156050F8041C53F8045C1A4602BF46
:100F40004919013140F8041CEAE753F8044C50F801
:100F5000041C8C42CED21A461B68CAE774010020DA
:100F6000AFDEAFDE034B9A691207FCD4C0B2186043
:100F7000704700BF00100040072008B50149FFF787
:100F800085FA00BF54430000084A0346114600207A
:100F900010B552F8044B2CB101300428F9D10449A2
:100FA000FFF774FA41F8203010BD00BF5001002057
:100FB0005A4300000180FFF7B5BA0000F8B50446B7
:100FC0000846FFF751FB002854D12B4B2B4E1988B4
:100FD000328889B28A422A4903D8088880B282427C
:100FE0000DD21D880888ADB280B2854236D21888ED
:100FF00080B2824203D9088880B282422ED3214A2D
:10100000106818B91888044434802CE005882A0731
:101010001BD51F884288BFB2BA4203D80F88BFB21F
:10102000BA420FD2B3F800C00F881FFA8CFCBFB2CF
:10103000BC450CD21F88BFB2BA4203D90F88BFB2D9
:10104000BA4204D325F00F050580C06AD9E71D8890
:10105000521B92B2944228BF1446F6E71888121A1F
:1010600092B29442CED91B889BB20B80BDE8F84067
:10107000FFF736BAF8BD00BF420100204001002052
:10108000440100203801002008B5034B00011B6813
:101090001880FFF7A3FD00BF3C01002010B50A4BEC
:1010A0001C68238813F0040F03F0070203D0052007
:1010B0000649FFF7EBF904EBC20209010133918104
:1010C0001061238010BD00BF3C0100205F43000081
:1010D00030B50B4B1A6892B11446002334F8101B3C
:1010E00001F00701994208DD54F83350013385427D
:1010F000F8D102EBC3039B881380D26AEBE730BDC3
:101100003801002010B50446064B1B680BB91C467D
:1011100004E0A34204D12046FFF7C0FF204610BDE3
:10112000DB6AF3E73801002038B504460A4D2A6827
:10113000138803F0070343EA011313800121FFF72B
:101140003DFF064B18882B6804445C802A6813888E
:1011500043F00803138038BD3C0100204401002007
:10116000034610B9054B18687047054A106800B966
:10117000704742689A42FBD0C06AF8E73C01002001
:1011800038010020034600201A5C02B97047013084
:10119000FAE7013811F8013B00F8013F002BF9D1C3
:1011A000704701380A44914200D1704711F8013B61
:1011B00000F8013FF7E702F06FBF000008B519B172
:1011C00003200549FFF762F9044B1A6812B10420A5
:1011D0000149F7E7186008BD624300006401002080
:1011E0002DE9F843044616461D46BDF8208021B976
:1011F000DFF88090D9F800301BB901201E49FFF7B5
:1012000045F9B8F1000F28D04246294630469847A4
:10121000002823DA411C4FF6FF7308D19C421CD0F2
:101220002146A6F58170FFF739FFFFF7D7FC821C36
:1012300016D19C42D9F800900AD02146A6F58170BB
:10124000FFF72CFF424629464FF0FF30C847ECE736
:10125000424629464FF0FF30C8470020BDE8F883DA
:101260009C42FAD0C0F57F40FE30214680B2FFF7A5
:101270005BFFDAE764010020674300000D4A08B510
:10128000C2F1005303F598439B08591EFF2903D868
:1012900004200949FFF7FAF80849101D08600020EA
:1012A0000749023B1360C2E90101064A1360064A7E
:1012B000136008BD3C0200206A4300007401002056
:1012C000AFDEAFDE680100207001002008B5C8B1B4
:1012D00050F8043C002B03DB06200B49FFF7D6F83F
:1012E0000A4903F100430A6840F8043C13440B60C8
:1012F000FFF7F8FD0648037823B1FFF7E9FE03780E
:10130000013B037008BD00BF6F430000680100206F
:101310006C01002010B508B90F4B186800230F4965
:101320000C681CB903200E49FFF7B0F88442E26A4A
:101330000ED15BB90A602046FFF7B6FDFFF7C6FF86
:10134000054B1B68A34206D1FFF748FCDA62F2E7BF
:1013500023461446E5E710BD3C010020380100207B
:1013600074430000072898BF022038B5214B88BF7E
:1013700003301C68204988BF80084CB91F4A537845
:10138000FF2B01D00133537000221D4B1A602FE058
:1013900062688A4203D006201A49FFF777F854E9B9
:1013A0000152854202D223461446E6E71A6054F8F9
:1013B000043C1B1A082B09D944F8040C013004EB37
:1013C0008000013B40F8043CFFF78CFD00220B4BF2
:1013D0000D495A7054F8042C0B689B1A0B6008498D
:1013E00042F00042086844F8042C834238BF0B6086
:1013F000204638BD74010020AFDEAFDE6C01002056
:1014000070010020784300006801002038B50546CF
:1014100030200C46FFF7A6FF002338B1074A0380AF
:10142000C3621368C0E901540BB9106038BD1A4695
:10143000DB6A002BFBD1D062F8E700BF3801002047
:10144000044A014613780348FF2B1CBF0133137075
:10145000FFF724BE6C0100200FB42DE9F7430AAB5F
:1014600053F8045B152001934FF08053D3F8B0314B
:101470000A275B699847DFF818812878A8B90D20FA
:10148000FFF770FD0A20FFF76DFD424A93691B07C5
:10149000FCD44FF08053D3F8B03115201B69984726
:1014A00003B0BDE8F04304B07047252805F10106FC
:1014B0006BD16B786C2B019B08BFAE1C53F8041BDF
:1014C00008BF20250193337818BF1025752B0C46D3
:1014D0004ED00AD8642B1CD0732B52D02520FFF796
:1014E00041FD3078FFF73EFD10E0782BF6D1002467
:1014F000DFF8A49004342B1B21FA03F303F00F034D
:1015000019F80300FFF72EFDA542F3DC013635463E
:10151000B3E76B1E21FA03F3DA0709D52D20FFF795
:1015200021FD102D04BF6FEA01446FEA14446442A8
:1015300042F21071102D18BF4146B4FBF1F5ADB267
:1015400035B9012904D0B1FBF7F1F6E71049F4E70A
:1015500005F1300080B2FFF705FD0929B1FBF7F373
:1015600001FB1544D2D9B4FBF3F51946ADB2EFE750
:10157000102DEBD18CB242F21071DEE7FFF7F2FCD6
:10158000013108780028F9D1C0E7FFF7EBFCBEE78E
:1015900000CA9A3B001000407D43000043F239032B
:1015A000044A0549106801FB00331360034A1068C0
:1015B00058407047000000206D4EC6416001002079
:1015C00038B58B7A0546DA070C4603D50A200E4952
:1015D000FEF75CFF0368834201D1FFF779FDA37A30
:1015E0005B070AD52B68C4E900352B685C602C606A
:1015F000A37A43F00103A37238BD25606B68636072
:101600001C606C60F4E700BF8D43000010B5044619
:101610000C3080B2FFF7A6FE10B100230481438195
:1016200010BD837ADB0708D5D0E900235360026838
:101630001A60837A6FF300038372704708B5FFF76F
:10164000F0FFBDE80840FFF741BE000010B50139CA
:101650000446FFF7E6FF042932D8DFE801F02D0742
:10166000031D1900837A43F0040383726389C3F373
:10167000C603072B03D8134A52F8230018B912499E
:101680000A20FEF703FF2146BDE81040FFF798BF90
:10169000837A43F004038372E27A5F2A4FEA52139B
:1016A00003D80A4A52F823200AB90949E8E7094A47
:1016B000214652F82300E7E7BDE81040FFF7BEBF20
:1016C00010BD00BF7801002093430000A40100205A
:1016D0009F4300009801002010B510F8022CA0F1E3
:1016E0000C04920722D530F8022CC2F3C602072A56
:1016F00003D8114951F822201AB910490A20FEF7DF
:10170000C5FE10F8013CC3F38203022B05D80C4A36
:1017100052F823300BB11B690BB90A49EEE7984721
:1017200001462046BDE81040FFF790BF2046BDE8C7
:101730001040FFF783BF00BF78010020AB430000DB
:10174000BC010020B14300000CB42DE9F3470AAB03
:1017500053F8048B02290F4601930BD8244B53F8FE
:1017600021303BB1B8F1020F04D8DFF8889059F866
:1017700028301BB901202049FEF788FE08F0070336
:101780009B0243F0020343EA41351C4B00269A4674
:1017900053F8042B12B30136082EF9D14FF0FF365F
:1017A000304602B0BDE8F04702B070472B4666F302
:1017B000C9034AF826402381C4E9004459F8283077
:1017C0001B6813B90A200E49D6E731463846019AFC
:1017D00098470028E2D14AF82640E1E70C20FFF7BD
:1017E000C1FD04460028E1D106200649C4E700BF38
:1017F00098010020BC010020B743000078010020C0
:10180000C3430000BD430000022809D8064B53F82B
:1018100020200AB18A4203D143F8201000207047EB
:101820004FF0FF30704700BFBC010020082938B5D9
:10183000034603D8194A52F8210018B918490A205A
:10184000FEF724FE0468A04208D14FF6FF729342CF
:1018500021D01946FFF722FCFFF7C0F92046FFF719
:10186000E0FEE37A04F10C05C3F38203022B05D8F2
:101870000C4A52F823300BB1DB680BB90A49DEE79A
:10188000214628469847238862881A4423899B1A50
:101890006380284638BD0025FBE700BF78010020A3
:1018A000C9430000BC010020CF4300000829F7B560
:1018B000054614461E4603D8264B53F821701FB91F
:1018C00025490A20FEF7E2FD7B7AC3F38203022B4F
:1018D00005D8224A52F823300BB1DB680BB92049F6
:1018E000EFE7ADF804100020ADF8066001A99847B5
:1018F00058B14FF6FF739D4202D1002003B0F0BDF6
:101900002946FFF7CBFBFFF769F93B7ADB0701D5E7
:101910001449D6E7BDF80400BDF80630A4B2184457
:10192000204480B2FFF772FE38B94FF6FF739D4234
:10193000E3D02846FFF784FDE5E73B8943811EB1EC
:10194000837A43F004038372BDF80430448003803B
:101950000C30D3E778010020D5430000BC01002003
:10196000DB430000E14300000346032B084610B5AB
:10197000114603D8054A52F823301BB90A200449FE
:10198000FEF784FDBDE81040184700BFA401002009
:10199000E743000008B50B1E11DA00281FDB0133F6
:1019A00007D102281BDC0F4B53F8200000B1C0699F
:1019B00008BD022813DC0C4B53F82000F8E7082878
:1019C00003D80A4B53F820301BB90A200849FEF708
:1019D0005DFD587ABDE808404009FFF7C5BF00200B
:1019E000E6E700BFBC010020B00100207801002024
:1019F000ED430000F8B580B215460E4609B3531CFE
:101A000003D103201249FEF741FD082A03D8114FE4
:101A100057F8223013B90A200F49F4E7FFF7F6FD13
:101A2000044608B90020F8BD57F8253031461B8917
:101A300043816FF341038372FFF708FE04F10C004A
:101A4000F1E7FFF7E3FD0028ECD00C30EBE700BF37
:101A5000F343000078010020F9430000022810B58C
:101A6000044603D80C4B53F8200018B103200B494F
:101A7000FEF70CFD43F82410094B082043F82420FE
:101A8000FFF770FC074A42F8240010B90620064907
:101A9000EEE7C0E9000010BDA4010020FF430000F4
:101AA000B001002098010020054400002DE9F04F0E
:101AB000032805460E46144685B003D81F4B53F83D
:101AC00020301BB91E490A20FEF7E0FCDFF87480C5
:101AD0000DF10C0908F108073B68BA46043F2BB921
:101AE000D045F9D1002005B0BDE8F08FD3F808B09B
:101AF000BBF1000F01D11449E5E7314622462846E3
:101B0000CDF8009002ABD84701460028E8D0012864
:101B1000E8D0BDF80C20BDF80E301A44A41A2046B7
:101B2000029AFFF767FF0028DCD0BDF80C102246B0
:101B30003144FFF736FB0120D5E700BFA4010020A8
:101B40000B440000BC01002011440000032808B52C
:101B500003D80B4B53F820301BB90A200949FEF774
:101B600095FC094B53F820301868834205D003894F
:101B70000B60FFF756FD0C3008BD0020FCE700BFEE
:101B8000A40100201744000098010020032808B594
:101B900003D8084B53F820301BB90A200649FEF73A
:101BA00075FC064B53F82030186883420CBF0020A8
:101BB0000C3008BDA40100201D4400009801002045
:101BC00010B510F8013CA0F10C04C3F38203022B02
:101BD00005D8084A52F823300BB15B691BB90A20BB
:101BE0000549FEF753FC984701462046BDE81040E2
:101BF000FFF72CBDBC010020234400007047FEE726
:101C0000FEE7FEE708B501F0E9FC0D4B0D48DA1CD4
:101C1000121AC11E22F00302994288BF00220A490B
:101C200002F0E6F909480A494FF000028842B8BFBD
:101C300040F8042BFADBFFF705F9FFF7E1FF08BDD9
:101C400008010020000000202D4F000008010020A6
:101C50003C020020082300204FF4806110B5084AA0
:101C6000D2F8C0404000E405C0B248BF40F00100D7
:101C7000013BC2F89010C2F8A010F1D110BD00BF16
:101C80000020024010B508224FF400744FF4806128
:101C9000084B10F0800F14BFC3F89040C3F8A04069
:101CA0004000013AC3F89010C0B2C3F8A010F0D1C0
:101CB00010BD00BF00200240012310B5044CC4F841
:101CC000503AFFF7DFFF0023C4F8503A10BD00BFC1
:101CD000001044422DE9F04104460D460127DFF88B
:101CE0004480114E98F800305BB10520C6F8507A58
:101CF000FFF7C8FFFFF7AEFF0023C6F8503AC3074F
:101D000001D4BDE8F0814FF6FF739C4203D101205E
:101D1000FEF764FBE6E721462846FFF705FAFEF7E3
:101D20005DFF00BFC801002000104442F8B50D4D12
:101D30002F7847B101214FF6FF70FFF7CBFF00224C
:101D4000094B1A70F8BD0124084E2046C6F8504AC7
:101D5000FEF72EFB2046C6F8507AFEF729FB022339
:101D60002B70ECE7C8010020C9010020001044429C
:101D700010B5074C2378022B09D101214FF6FF70D3
:101D8000FFF7A8FFB920FFF797FF0023237010BDCE
:101D9000C801002008B5FFF7C9FF0122014B002050
:101DA0001A7008BDC8010020034B1A781AB102222C
:101DB0001A70FFF7DDBF7047C80100200EB477B579
:101DC00004461248FFF7CCF9064620B12146FFF73A
:101DD00099F9FEF703FF08AA0799019200F066FE41
:101DE000054618B92046FFF72BFBF2E701460748E6
:101DF000FFF70CFB18B92846FFF768FAF2E7304600
:101E000003B0BDE8704003B0704700BF912E0000E2
:101E10000EB433B50599044621B3134D286888B92B
:101E20001248FFF79DF948B901461048FFF7EEFA4E
:101E300020B92046FFF704FBFEF7D0FE2146FFF74E
:101E400061F9F9E706AA019200F058FE04462868F5
:101E5000FFF73CFA00232B60204602B0BDE830407B
:101E600003B070470C46F7E714020020012F000072
:101E7000F8B504460E4615467AB3194F386888B946
:101E80001848FFF76DF948B901461648FFF7BEFA42
:101E900020B92046FFF7D4FAFEF7A0FE2146FFF74F
:101EA00031F9F9E70378A3B944780334AC42A8BF09
:101EB00005F1FF34224630463968FFF772F9386879
:101EC000FFF704FA00233B60327802B13355204615
:101ED000F8BDFFF757F90446E8E71446F7E700BFF7
:101EE00014020020012F0000044B054A1B7803F563
:101EF00059731384034AD381704700BFCC0100207B
:101F0000500000203800002070B50C461A2800F25E
:101F1000A480DFE800F00E39393914304F675B4494
:101F2000353BA2A2A2A2A2A27A77A2A28B8941A249
:101F30009A004C4B187800F00100023028E0494A22
:101F4000137843F0010313700020474B1968474B87
:101F50000C461D68002334F8102B02F007029A4249
:101F600008DD54F833600133AE42F8D101EBC3030E
:101F70009B880B8070BD3B4A137823F00103E2E796
:101F800001B10C883A4B1C800020F3E7384B1888CD
:101F9000002CEFD02080EDE7364B1878CDE70C22EF
:101FA00021B120463449FFF7FCF8EDE73248FFF74E
:101FB00002F9E9E741B9FFF7F1FAC0F3054102314F
:101FC0002E48FEF7F7FFBFE70988F9E700202C4B02
:101FD0005A8B2C4B33F8021B8A42D9D00130082887
:101FE000F8D1D5E719B10888072828BF0720254B65
:101FF00033F81020224B5A831A4A137863F07F0378
:102000001370A2E7204B1878C2E721B10C88072C87
:1020100028BF0724E4B21C4B1C70FFF765FF114A70
:10202000137863F07F038EE7184BECE739B10B8828
:10203000032B06D83BB1DBB2144A1370EDE7022341
:10204000FAE70323F8E70123F6E719B10B88104AF2
:10205000138099E74FF48073F9E703200D49FEF7E9
:1020600015FA00BFD4010020D0010020E0010020BB
:1020700004020020E4010020F8010020CA01002031
:102080005000002096440000CC01002036000020C3
:10209000340000203244000038B504460C4D204680
:1020A00001F0A6F8C2B2012A11D0862A03D009494C
:1020B0000820FEF7EBF9013D05D121460648FFF760
:1020C000CBF90649F4E70120FEF772F9E7E738BDDE
:1020D000915F01003A4400003E4400004A44000081
:1020E00010B5064C23789B0706D50548FFF7D4FFAB
:1020F000237823F00203237010BD00BFD401002019
:102100000100010438B5134C2378DB0621D54FF0CC
:1021100080530025D3F8B03119205B69984700201F
:1021200001F0E4F901F078F80B4B01201D60FEF797
:102130008BF90A4B5D6001F041F84FF08042084B8B
:10214000C3F8A0200222C3F8A020237823F01003B4
:10215000237038BDD4010020000004600000244337
:102160000020024070B504460D4642F211766288A6
:10217000AA420ED0013E08D1218806482B46FFF71F
:102180006BF908200449FEF781F90120FEF710F9E8
:10219000EDE770BD53440000634400002DE9F047B3
:1021A000514C2378DB0600F19C804FF080424F4B6E
:1021B000C3F890200222C3F8902000F0C3FF0A2049
:1021C000FEF7F6F800F0CAFF0028F8D00125484BCA
:1021D00028465D60FEF718F940F2FF72454B46480D
:1021E0001A60FFF759FF4FF423724449444801F045
:1021F000FFFE0022434B444883F89020022283F8DC
:102200007520032283F87720042283F8AE2005226C
:1022100083F8AB20062283F8795083F881204FF0B1
:1022200004533A4AC3F8C023394A03F5404391693D
:10223000D2E90098D2E902ECD2E90476D569C3F874
:102240000090C3F80480C3F808E0C3F80CC01F6115
:102250005E6199611946814202F1200203F1200377
:10226000CD61E4D12B4B2C4A2C48C3F8A0262C4A34
:10227000C3F8A4262B4AC3F8A8262B4AC3F8AC26D9
:102280002A4AC3F8B026FFF707FF012001F02EF914
:10229000274801F01BF92748FFF7FEFE4FF4505185
:1022A0002448FFF75FFF2448FFF7F6FE2348FFF7B7
:1022B000F3FE22484FF48061FFF754FF0022237899
:1022C000192003F07F0343F0100323701C4B5A6165
:1022D0001A614FF08053BDE8F047D3F8B0311B6965
:1022E0001847BDE8F08700BFD4010020002002405D
:1022F0000000244300000460510007065C4B00000E
:102300001C0400210003002180C60021BD0500211E
:10231000A844000000C00021603953630100070693
:102320002010101A136F236E11161216546B0070C2
:10233000E80100205000002020000020380000208C
:10234000001004402DE9F843294B9A6922F000421D
:1023500022F480329A6100221A611D69002DFBD19E
:1023600002265A69234F42F0004242F480325A61F9
:10237000214BDFF88880DB69DFF884901C682379C3
:10238000032B1ED1637A217ADA1C914205F10105F3
:102390001CD198F800209A4218D313F0010C15D1E3
:1023A00004F108019A1C885C0B448038D87001F84D
:1023B00002C0B9F8000004F10A01FFF777FB00231F
:1023C0002371012E06D001262468D8E73846FFF78E
:1023D00043F8F4E74DB1FFF7E1F8BDE8F843C0F387
:1023E000024102310748FEF7E5BDBDE8F88300BFB2
:1023F000001004406744000078000020E401002041
:10240000DC010020CA0100200128F8B500F083801B
:10241000022800F0B580002840F0C680644C94F992
:102420000030002B05DAFFF76DFE237803F0690317
:102430002370227802F0010392071DD50BB9FFF734
:102440004FFE5C4D5C4E2B68002B48D15B4B294600
:102450001888FFF77BFB706160B3594A2B681278CC
:10246000023B93422B6003DC002B01DDDF0718D514
:102470000A205449FEF70AF8002BE2D0FFF78EFE3F
:10248000237813F00203DCD14F48C269126813713C
:1024900012681371FFF700FE237843F002032370E4
:1024A000CFE74FF6FF72494B1B88934218BF03805A
:1024B0002B68F373296891B9454B1868FEF7EEFD58
:1024C00023789C0703D5FFF73DFFFEF787FBD8066F
:1024D000FBD502213F4B1888FEF726FEF5E73E4F5D
:1024E0003D8865B13A4B00211868FEF7D7FD002101
:1024F0003888FEF719FE23789907E6D5E3E7FFF75A
:102500004DFEFFF7EDFD6FF00202344B758034484D
:102510001A61FFF7C1FD264B93F90030002BFFF63F
:102520007DAF2E4B1A69920702D401210846D3E7EA
:1025300021482C4C4288B2F5505F18D022780F2ADF
:1025400009D9002242806FF002021A61FFF7A4FD50
:102550000120FEF799FD237801332370FFF71EF861
:10256000C0F3054102311C48FEF724FD56E74069DF
:10257000FFF726FB00230F4A022113602370F2E7C6
:102580000B4B1A7893F90030002BFFF647AFD307B7
:102590003FF544AF094B1888FFF7F8FA00287FF49D
:1025A0003DAFFFF7AFFD39E7BDE8F840FEF7E4BC0B
:1025B000D4010020D80100209C000020DC01002074
:1025C000E40100206E440000780000200402002096
:1025D000E001002034000020CA0100200010044067
:1025E000040000200602002030B5154A1369002BB4
:1025F000BFBF14490B7863F07F030B70002111619A
:102600001369002BFBD1516953610F4A0F4C1168BC
:102610002468084630F8102B02F007029A4208DDC1
:1026200050F833500133A542F8D101EBC3039B8826
:102630000B80074A137843F00203137030BD00BFCC
:1026400000100440D4010020D0010020E00100204F
:10265000480100202DE9F84F494C064622781AB16E
:1026600009204849FDF712FF29B18A1FF42A03D92E
:1026700003204549F6E7FA2100274FF00208BA4641
:102680004FF00409217020789B460D30FEF76AFE5A
:10269000034620B906203B49E4E7B846F3E780F853
:1026A00004A0002F3ED0CBF8000001272278B845C7
:1026B00002F1020283F80590DA80EED11D60082055
:1026C000FEF750FE314BD8610028E3D005600025AD
:1026D000DA692F4955602F4A30461A62DA8942F486
:1026E0000C5242F00602DA8123784FF41062023B6A
:1026F0002370294B1E80FFF7B1F9284B07220221D6
:1027000018602B462648FEF7A7FE2648FEF73CFC3D
:1027100029462548FEF77AFE244B186020B904208C
:1027200018499FE70546C0E74BF62B43204C21494B
:102730006383214B1A78013A01EB8203588831F800
:102740002230226903F00F0322F0FF5222F4FF121D
:1027500022F4F85222F00F0243EA002313432361CC
:10276000FFF7C2FB154B2046C3F8D05100F022FE04
:102770002046134900F076FD124B9D61BDE8F88FAD
:10278000E4010020764400007B4400007800002033
:10279000091F0000F8010020DC010020E0010020FA
:1027A00083440000CA01002009240000D001002059
:1027B00050000020E84D00003600002000200840B6
:1027C000E80100200010044010B5074A03461268D3
:1027D0004FF0FF3032B152F823408C4204BF42F830
:1027E0002300002010BD00BF080200200749009A06
:1027F000096809B90020704751F8201019600131AB
:10280000F8D0002302205380138070470802002074
:1028100000204880088070470420704701207047DE
:1028200070B50F4E044633680D464BB90C20FEF7C9
:1028300099FD306078B14FF0FF33C0E90033836019
:10284000336853F82420013206BF43F82450002097
:102850004FF0FF3070BD06200249FDF717FE00BFA4
:1028600008020020F44D0000DCF8002032B1BCF872
:102870000630BCF80410994288BFD054BCF806302A
:102880000133ACF8063070472DE9FF471C460CAB0E
:10289000039300230A26834F0190ADF80810ADF88A
:1028A0000A3092F80090B9F15C0F13D192F80190C0
:1028B000951C0DF1040CB9F1000F06D15C20FFF757
:1028C000D3FF48460DF1040C22E04846FFF7CCFF49
:1028D0002A46E6E7B9F1250F40F0E18092F8018041
:1028E000951CB8F1730F00F0CC801AD8B8F1640FC2
:1028F00032D0B8F16C0F66D0B8F1630F00F0BB8036
:1029000025200DF1040CFFF7AFFF40460DF1040C3C
:10291000FFF7AAFF0028DBD1BDF80A0004B0BDE82C
:10292000F087B8F1750F17D0B8F1780FE8D14FF0F4
:102930000C0854F8043B1FFA83F949FA08F303F032
:102940000F03F85C0DF1040CFFF78EFFB8F1000FD8
:10295000BED0A8F10408F0E754F8043BB8F1640FC6
:102960001FFA83F90AD11B0408D52D200DF1040CA0
:10297000FFF77AFFC9F100091FFA89F9052342F22E
:102980001078B9FBF8F010F0FF0003D1013B17D12C
:102990004FF001081FFA80FA0DF1040C3030FFF7F8
:1029A00063FFB8FBF6F308FB1A99B8F1090F1FFA99
:1029B00089F99BB28CD9B9FBF3F09846C0B2E9E72C
:1029C000B8FBF6F8DDE79378642B01D0752B32D194
:1029D000642B54F804AB02F1030509D1BAF1000FDE
:1029E00006DA2D200DF1040CFFF73EFFCAF1000AB4
:1029F0000A23DFF8B480BAFBF8F919F0FF0903D114
:102A0000013B15D14FF001080DF1040C09F1300024
:102A1000FFF72AFFB8F1090FB8FBF6F308FB19AA74
:102A20007FF656AFBAFBF3F998465FFA89F9EBE700
:102A3000B8FBF6F8DFE7782B14D14FF01C0854F8F8
:102A4000049BD51C29FA08F303F00F03F85C0DF181
:102A5000040CFFF709FFB8F1000F3FF439AFA8F1FC
:102A60000408EFE748460DF1040CFFF7FDFE404671
:102A70000DF1040C2AE754F8040B0DF1040C80B29C
:102A800024E754F8043B03F1FF3818F8010F00283D
:102A90003FF41EAF0DF1040CFFF7E6FEF5E7551C01
:102AA0000FE700BF7D43000000CA9A3B2DE9F041CB
:102AB0000E461746044640B113460A464FF6FF71CC
:102AC000FFF7E2FE2046BDE8F0810846FEF75AFB1C
:102AD00000F11105ADB22846FEF744FC044600287B
:102AE000F0D03B4632462946FFF7CEFE854280466F
:102AF000E8D22046FEF7EAFB4546ECE703462DE91F
:102B0000F043002800F0B881002900F0B7810024CC
:102B10000A272546DFF8D8C20E4611F8010B70B11E
:102B20002528F9D17078B11C6C2800F0E18009D813
:102B3000632800F08781642843D00028ECD1204628
:102B4000BDE8F083752874D0782800F09880732849
:102B5000E2D118781E46A0F1090E5FFA8EFEBEF192
:102B6000170F984603F1010340F276810028E6D062
:102B70002C2852F804EB04F101040ED0464618F854
:102B8000013BA3F10900012807D90D2B05D02C2BFF
:102B900003D013F0DF0F40F0668196F800803346D3
:102BA000A8F10900C0B2172806F1010640F25E81C3
:102BB000B8F12C0F08BF33468EF80050ACE7002E5A
:102BC000BDD09E4613F8016BA6F13000092823D929
:102BD0002D2E01D02B2EF2D118789E4630380928A0
:102BE000EFD8A6F12D09D9F1000848EB090852F8F1
:102BF000046B013435809EF800007346A0F1300963
:102C0000B9F1090F0EF1010E09D9B8F1000F83D106
:102C10003088404230807FE74FF00008E7E7338894
:102C200003EB8303C0EB430030303080E3E7002840
:102C300085D018781E46A0F1300EBEF1090F03F1C1
:102C40000103F4D852F804EB0134AEF800503078A8
:102C50003346A0F13008B8F1090F06F101063FF63E
:102C60005BAFBEF8003003EB830300EB430030386A
:102C7000AEF80000EBE7BEF1000F3FF460AF93F851
:102C800000E01E46AEF13000092803F1010304D92B
:102C90002EF0200041380528EDD852F804EB01341D
:102CA000AEF8005006F1050896F800903346A9F1F9
:102CB0003000C0B2092806F1010640F2E18029F097
:102CC0002000413805283FF627AF46453FF424AFA2
:102CD000A9F16103052B94BFA9F15700A9F13700B1
:102CE000C0B2BEF8003040EA0310AEF80000DBE7E7
:102CF000B078F11C752800F0808031D800283FF4AE
:102D00001EAF64287FF408AF984613F8016BA6F154
:102D10003000092862D92D2E01D02B2E5BD11878D6
:102D2000984630380928EFD82D3E7042704152F84D
:102D300004EB0134CEF8005098F800604346303E72
:102D40005FFA86F9B9F1090F08F1010848D900289E
:102D50007FF4E2AEDEF800004042CEF80000DBE691
:102D600078287FF4D9AE93F800E01E46AEF130002B
:102D7000092803F1010304D92EF020004138052869
:102D80005CD852F804EB0134CEF8005006F1090883
:102D900096F800903346A9F13000C0B2092806F138
:102DA000010671D929F02000413805283FF6B4AE5C
:102DB00046453FF4B1AEA9F16103052B94BFA9F1DB
:102DC0005700A9F13700C0B2DEF8003040EA031026
:102DD000CEF80000DCE7002E96D1B0E60020A6E792
:102DE000DEF80030B6B27B439E1BCEF80060A3E74E
:102DF0001300800000283FF4A2AE18781E46A0F110
:102E0000300EBEF1090F03F10103F3D852F804EBC1
:102E10000134CEF800503078334630385FFA80F80D
:102E2000B8F1090F06F101063FF676AEDEF8003084
:102E300080B207FB0300CEF80000ECE7BEF1000F04
:102E400091D17CE613F8010B00283FF478AE52F8DC
:102E5000046B013430705FE62CFA0EFE1EF0010F99
:102E60007FF477AE84E60EF8013B87E62CFA00F09B
:102E7000C0073FF592AE9FE6044660E60C465EE66C
:102E800046457FF42EAF47E646459DD144E600BF58
:102E9000F7B5184B1B689D6830B10A280DD003B0F8
:102EA000BDE8F040FEF768B8134B144C1D602B785A
:102EB000E3B12846FEF766F920600F4E0F4F3B88BE
:102EC00001220093002133680A20FEF789F9336854
:102ED0003C680344241A33603C60002CEFD1284640
:102EE000FEF7F4F92046FEF715FAE8E76B780333AE
:102EF0002360E2E73C010020100200200C020020C9
:102F0000F7B5424D2B689C6803287AD8DFE800F0BB
:102F10000218485D3E4B1B6813B10020FEF7FAF91A
:102F20004020FEF71FFA3B4B0446186018B9FEF725
:102F300087FAFDF753FE3F222B689860364B1A60E4
:102F400001200022334D00902B681146FEF748F90E
:102F50002B68A3420DD1237823B9631C02202B6078
:102F6000FEF792F82B681B781F2B02D80120FEF782
:102F70008BF82B681A780A2A01D00D2A05D1002077
:102F80001870234B1C60FEF7C5F923490B6823B169
:102F90002A68013B01322A600B600120FEF774F8B9
:102FA000012300221B4D009311462B680220FEF7DF
:102FB00017F9194803689A1E2B6813F8011B013191
:102FC0009142D4BF016002602B600022124F114E6B
:102FD0003B881146009303203368FEF701F93B68F4
:102FE0000546181A386018B9094B1C60FEF792F9AB
:102FF000306828443060032003B0BDE8F040FEF79D
:1030000043B803B0BDE8F040FDF7B6BF3C01002077
:10301000140200201C0200201802002070B5064691
:1030200000F044F80546064C2368002BFBD0B0475F
:10303000012323601DB9BDE8704000F03BB870BDAE
:1030400000800C40084B1868084B1978084B1A6828
:1030500040F31003A2F5407248B25043A3EB201096
:1030600080300012704700BF305009400C130050F0
:1030700028500940054A06491368086812689342B7
:10308000F8D11B0443EA1040704700BF08200940F4
:103090000C200940034B04491A68086819689142DA
:1030A000F8D17047082009400C200940EFF3108048
:1030B00072B67047EFF3108062B6704773B50C4676
:1030C000C107054609D5124BA2B21B680021009228
:1030D0005E68104801220B46B047AA0709D50C4B81
:1030E000A2B21B6800925E680A48002102220123F6
:1030F000B0476B0709D5064BA4B21B6800945C6807
:10310000044800210C220223A04702B070BD00BF7A
:10311000A401001000A00C4010B5084B04281B6847
:103120004FF03401DC6807BF4FF0C0421D234FF061
:1031300080521C230248A04710BD00BFA40100100C
:1031400000A00C4008B503200121FFF7B7FFFFF7EF
:1031500091FF014B986008BD2002002010B50120AE
:10316000FFF7DAFF01281CD00F4B10481B683421F1
:10317000DC6801220023A047A0B10D4B986BFFF73C
:103180004DFFFFF777FF0B4A9368D060C01A0A4BD8
:1031900058431368000CA3EB9303834294BF106061
:1031A0001360012010BD00BFA401001000A00C405E
:1031B000480000102002002040420F0010B50320FC
:1031C0000021FFF77BFF0120FFF7A6FF18B1064B98
:1031D000986BFFF723FFFFF74DFF044C6060FFF78C
:1031E00031FF206110BD00BF480000102002002008
:1031F000074A11680029FBD1064B196010601A6854
:10320000002AFCD0034B00221A6053F8180C7047B8
:10321000001004401C1004400E4A0F49136850204F
:1032200023F4007323F0020343F4007313600B4B89
:1032300003221A6041F23003094A0B600123136034
:1032400008604FF4CA6013600860136042F80C3CD9
:10325000704700BF0000046014410440084104406E
:103260000C41044040F602020388934206D043F624
:103270000702934204D190F8243002E0C37B00E0BF
:103280000023364A0A2B12680A6031D010DC052B65
:1032900021D0062B53D1324B1B684B60314B1B683E
:1032A0008B60314B1B6823F0784343F0405352E06E
:1032B0000F2B2AD01E2B35D00C2B40D12B4B1B684B
:1032C0004B602B4B1B688B602A4B1B6823F07843A9
:1032D00043F0C0433FE0284B1B684B60274B1B6803
:1032E0008B60274B1B6823F0784343F0205332E078
:1032F000244B1B684B60244B1B688B60234B1B6863
:1033000023F0784343F0A04325E0214B1B684B603A
:10331000204B1B688B60204B1B6823F0784343F0E5
:10332000F04318E01D4B1B684B601D4B1B688B6006
:103330001C4B1B6823F0784343F070430BE01A4B9F
:103340001B684B60194B1B688B60194B1B6823F083
:10335000784343F08053CB60704700BF4C1300505C
:10336000C8100050E0100050F8100050D01000506D
:10337000E810005000110050C4100050DC10005044
:10338000F4100050CC100050E4100050FC1000501D
:10339000D4100050EC10005004110050D810005010
:1033A000F0100050081100505413005058130050F2
:1033B0008013005043F6060270B5038893420AD08A
:1033C00043F60702934209D040F6020293426BD1C2
:1033D000C17B436905E0C369022102E090F8241033
:1033E000C369002B60D003F1140444F238051A6855
:1033F000184696B2AE4203F1040303D1C2F303446C
:103400001CB970BDA342F0D170BD0A291DD006DCE5
:10341000052913D0062916D002291FD107E00F294C
:1034200015D01E2915D00C2918D1204B12E0204BA5
:103430001B68C3F383430F2B2AD123E01D4B1B686A
:10344000C3F303232CE01C4B04E01C4B02E01C4B99
:1034500000E01C4B1B68C3F3834321E0144B1B6843
:10346000C3F383430F2B13D1053919290AD801233C
:1034700003FA01F1144B0B4023B122F4702242F401
:10348000E02203E022F4702242F48022026070BD48
:103490009C4209D222F4702242EA0343036070BDC9
:1034A0000F2BF5D10539E2E770BD00BF00110050C8
:1034B0008013005020130050F8100050FC100050F2
:1034C000041100500811005021040002034630B5D9
:1034D000054C00F11005224618685968083303C2EC
:1034E000AB421446F7D130BD18000021044B28B17F
:1034F000044A0021117020221A707047187070471A
:10350000026208400062084038B50546264B012299
:103510001A60264B1B68002BFBD0254BC0221A607B
:10352000244B1B689B075FBF234B244A1B68C3F3D4
:1035300003435CBF43F0F0031370214B00221A6079
:10354000204B1C68204600F0D9F82846214600F0A0
:103550000DFA40F21D221C4B1B689BB2934214D8FB
:103560001A4A13681268C3F30363C2F3034203B138
:10357000013B911F012986BF023202F00F02072290
:1035800043EA0213124ADBB21370204600F0BCFA81
:10359000104B02201B68DB689847054B40221A60DD
:1035A0000D4B01221A6038BD1010094094022243CD
:1035B00000600C40B03F0050AC3F005056620840E5
:1035C00040100940B43F005014130050BC1200508A
:1035D00002600840A00100109404604210B51F4B27
:1035E0001C68631C08BF002400F0DEFC1C4B00229A
:1035F0001A601C4A012313601B4A136000F03EFA54
:103600001A4B1B6823B11A4B20461B68FFF77CFF3F
:10361000184B00221A60184A136823F07F6323F4C2
:10362000702343F09C7343F48033136002F5BB2294
:1036300002F2BC721368C3F30133012B01BF13689C
:1036400023F0407323F4403343F4003104BF11608E
:1036500013600A4B1B68002BFBD110BD1C130050DC
:10366000840460425C600C400822044380012843CB
:10367000000120438C210840482003400C00684290
:1036800030B5194B1A68194BC2F304621B78152A1E
:1036900003F01F0388BF203A152B88BF203B9342BD
:1036A00020D01349002008600846D11A022905DC01
:1036B0006FF00104A142B8BF214600E002210B4493
:1036C0000C490D4D0C6803F01F0444F4F8542C8091
:1036D00093424FF001040C60E7D10B680C600B685B
:1036E00004600B6830BD00BF8813005006620840BC
:1036F000980020432C2009406C62084000F0407381
:10370000B3F1807F10B504460FD14FF6D8011E4AA1
:1037100080231370A2F8411002F8103CFFF7B0FFAD
:103720001A4B1B68C3F3042303E0194B1B68C3F354
:103730000463152B88BF203B03EB24730133152B47
:1037400005DC6FF009029342B8BF134600E0152371
:10375000104A03F01F0343F4F85313800E4B1B6809
:1037600013F002030ABF0D4A44F040641360C4F32F
:10377000C0630B4A83F001031360C4F38064094BF8
:1037800084F001041C6010BD2562084088130050BD
:10379000B81200506E6208400000094094042A43A9
:1037A0000000204308002043154B81031B68C3F32E
:1037B0008362C3F38F231FD440F30720002819DA54
:1037C0005B0805D1520806BF01231A464FF6FF7366
:1037D0000130F3E75B0043F00103B3F5803F08D30A
:1037E000520042F001020F2A86BF4FF6FF730F22EC
:1037F000012301380028EDD143EA0240704700BFA1
:1038000050130050044A13681068C3F3870300F094
:10381000030043EA0020704750130050024B186821
:1038200000F0FC30704700BF74130050034B186861
:1038300020F07F4020F44030704700BF70130050EC
:1038400070B5154B15491C680968C4F3035211F093
:103850000105C4F3034313D11149096841F3032659
:10386000B21803D40F2AA8BF0F2200E02A4641F362
:103870000331CB1803D40F2BA8BF0F2300E0002384
:10388000A1B2212841EA025242EA034384BF04F074
:1038900080442343184670BD78130050B03F005059
:1038A000AC3F00501F2883BF024B1868C0F3015083
:1038B0000020704798130050212883BF024B1868DE
:1038C000C0F30070012070478C130050212883BF83
:1038D000024B1868C0F34070012070478C130050F1
:1038E0001F2881BF074B1B68C3F30260800081BFA4
:1038F000C3F3C16240EA0220C3F38153184398BF67
:103900000020704798130050024B1868C0F3C14064
:10391000704700BF8C1300501F2881BF074B1B68E6
:10392000C3F30510C3F3892281BF00041B0340EADF
:1039300082509BB28CBF18430148704798130050C7
:1039400000803F40212883BF024B1868C0F3C0604D
:10395000002070478C130050212883BF024B186849
:10396000C0F34550002070478C13005073B50546D6
:103970000846FFF719FF394C02461821204600F08F
:1039800033FBFFF73FFF364B80B21B6800905E6849
:1039900020462C2140F2FF320023B047314B204615
:1039A0001A681C21C2F30D0200F01EFBFFF736FF60
:1039B00014210246204600F017FBFFF737FF1021C5
:1039C0000246204600F010FB2846FFF739FF0C2185
:1039D0000246204600F008FB2846FFF76DFF400036
:1039E000214E40F02000C0B230702846FFF76EFF35
:1039F00040F01000C0B230702846FFF771FF282158
:103A00000246204600F0F0FA2846FFF74BFF400040
:103A1000164B40F06000C0B218702846FFF792FFC6
:103A2000C000134B60F07F00C0B218702846FFF74B
:103A300093FF6FEA00606FEA90500E4B80B21880DF
:103A40002846FFF769FF08210246204600F0CCFA1D
:103A5000094B4FF480021A6002B070BD00A00C4008
:103A6000A40100107C13005049A10C404CA10C4053
:103A700041A10C40DCA10C4040A00C4030B5144BDF
:103A80001B68002BFBD1134A13491368096823F004
:103A9000005323F0070311F0040F144643F00053C2
:103AA00003D043F00503136030BD0C4943F004001C
:103AB0000D68AD0709D043F0070313600B6803F0EE
:103AC0000303032BFAD1206030BD106030BD00BF6E
:103AD0000C00684204400340B03F005000400340E7
:103AE000074B82B2C0F307401A60586001220833C6
:103AF0001A60044A1268002AFBD000221A6070473C
:103B00003C600C4084088C43C0F38143012B10B50A
:103B1000044602D0022B2FD02AE0424B1B689A03A6
:103B200026D4414A4FF4804111604049C3F3033029
:103B30000A6822F08F020243C3F3004042EAC01237
:103B40000A6051F8012CC3F3032022F00F02024354
:103B500051F8010C41F8012C51F8022C03F0E70355
:103B600022F0E702134351F8022C41F8023C03E033
:103B70002D4B4FF000421A602D4B1B681B075EBF98
:103B80002C4B40221A602C4B4FF400721A60FFF746
:103B9000BBFE2A4B40F03000C0B21870C4F3815015
:103BA00001280BD002D3022826D028E004200121CE
:103BB000FFF784FA2248FFF793FF24E0FFF7ACFAFF
:103BC000044604202146FFF779FA0420FFF7A4FAFF
:103BD000A042FAD11B4B1C6824F07F40FFF780FF06
:103BE000194B4FF060221B68200E1B680721984775
:103BF0000D4B4FF480621A600420032101E0042081
:103C00000221FFF75BFA114B114A1B6803F03F03D7
:103C1000137047F618020F4B1A80A3F56433443B28
:103C20001B6810BD8C13005040A00C400C60084075
:103C3000B03F005068A00C4080A00C4008A10C4090
:103C4000BD378600A83F0050B40100106C1300502F
:103C50000BB00C4070B00C402DE9F74F774B074686
:103C60001B68774E13F0020F04D00823B371754A16
:103C7000754BDFE0FFF7E6F9744B1D682A17AC02BD
:103C800002F1010108D4C0F13E03DB10082BA8BFEC
:103C900008239942B8BF194605F04073B3F1807FFD
:103CA0000AD16B4B1A681B68C2F30422152A88BF1D
:103CB000203AC3F304630AE0664B1A68664BC2F30A
:103CC00004621B68152A88BF203AC3F30443152BEE
:103CD0000A4488BF203B152A05DC6FF009018A429F
:103CE000B8BF0A4600E015225C4C02F01F0141F407
:103CF000F85121805A49096811F0030418BF0124C2
:103D0000490748BF44F002040FB144F0040496F997
:103D10000710411A042903DC494989798C426FD084
:103D2000B0F10F01019104F00101DFF844A104F0AA
:103D3000040904F002080F462AD4019901EB01118D
:103D40004FEA212EBEF1070F019101D804D101E005
:103D50004FF0070E062100E07146DFF818B101317F
:103D60005AF821C05BF82110C1EB0C0C5FFA8CF102
:103D7000B9F1000F02D0CCF3072B5944B8F1000F72
:103D800002D0CCF3074B59442FB101EB1C6102E088
:103D90004FF0000E71465AF82EA05FFA8AFCB9F176
:103DA000000F02D0CAF30729CC44B8F1000F02D0AB
:103DB000CAF30748C4440FB10CEB1A6C9B1A012BD1
:103DC000B8BF0123019F34225343A7EB0E27794349
:103DD000EDB26B4380310CEB1121B3FBF1F14FF6E7
:103DE000FF7C614528BF61467F28B18005DC6FF00C
:103DF0007F039842B8BF184600E07F20F071B4718D
:103E0000184B00211B683360B3881E2B9EBF0C4AE1
:103E10001F239380B3F5007F02D35B080131F9E7DC
:103E2000114A0F3B0A431B0942EAC303064A1360C7
:103E30000E4B00221A6003B0BDE8F08F000009406D
:103E400034020020FDFDA40030100940B43F0050B2
:103E500088130050B81200503C1100506E620840A8
:103E6000242208400820094000E7A48034100940BB
:103E70009C1300509813005010B5144B1C68A4B24A
:103E800014B3FFF7DFF8124B93F90720904205DADD
:103E90006FF07F029042B8BF1046D8719A880C49E3
:103EA000944210D30B4B08681B68A41A02331B1AE8
:103EB0001F2B28BF1F235B08DC4014444FF6FF7202
:103EC000944228BF14468C8010BD00BF34100940B6
:103ED0003402002008200940044B1A6812045ABF1B
:103EE0001868C0F342000820704700BF0400094072
:103EF0004BF69A12104B1868C0F30F30904206D15F
:103F00001B681B0F0B2B0CBF0420002011E04BF68D
:103F1000BE1398420AD04BF64133984208D04BF674
:103F20002033984214BFFF20022002E0012000E06D
:103F3000032040B2704700BF1813005038B5194B2A
:103F40001D68A3F51E7318682D0FC4B2802C28BFFE
:103F50000024FFF7CDFF042821D8DFE800F0031389
:103F60001B1B1C00013D072D19D8DFE805F01118B7
:103F7000041818180608142012E0152010E004F1A7
:103F800016000AE025B1022D09D104F1140004E065
:103F90000A2005E01DB904F10A00C0B200E0FF20CC
:103FA00040B238BD1813005008B5FFF7A1FF012833
:103FB00003D1FFF7C3FF132800DCFEE708BD0000B4
:103FC00038B504460D46FFF771F8064B1A68002A0B
:103FD000FBD0012225601A6018B9BDE83840FFF710
:103FE00069B838BD00800C4008441146FFF7E8BFAF
:103FF000F0B5C64600B50F2A43D903270D003E0091
:1040000005430C0003002E402F423FD11500103D08
:104010002D09A8462D01AC46844427681F606768B7
:104020005F60A7689F60E7681D00DF601034103391
:104030006545F2D145460F230C2401352D01491960
:1040400013404519144224D08C59AC5104369C1BA2
:10405000032CF9D8043B9B0801339B00ED18C918C9
:1040600003231A40561E002A06D00023CC5C1A00F7
:10407000EC5401339642F9D180BCB846F0BC02BC86
:1040800008470500561E002AEFD1F5E70500561E29
:10409000EBE71A00F6E7C046F0B5050083074DD000
:1040A000541E002A47D00A0603000326120E02E01F
:1040B0000135013C3FD301332A703342F8D1032C40
:1040C00030D9FF220A40150215432A0415430F2C4C
:1040D00037D92700103F3F093E01B4461E001A00A1
:1040E00010366644156055609560D5601032B24256
:1040F000F8D101373F01DB190F270C22274022405E
:104100003C00002A0ED03E1FB608B400A4461A0098
:104110001C1D644420C2A242FCD103240136B60017
:104120009B193C40002C06D00906090E1C19197079
:1041300001339C42FBD1F0BC02BC084703001400D1
:10414000BDE72700DFE7C046034B1A5C032313409B
:10415000022B00D1203870472D4E00004D6573733F
:10416000616765200042726F61646361737420004F
:104170004D6573736167652066726F6D206E6F6445
:10418000652025642028536571202564293A20255F
:10419000730A0D000A0D4D657373616765205365E1
:1041A0006E740A0D00756E61626C6520746F206F0D
:1041B00070656E205443562073657373696F6E008B
:1041C0006E6F2073657373696F6E000A0D50325005
:1041D000204368617420284E6F646520232564297C
:1041E0000A0D28432968616E6765206E6F6465203B
:1041F00049440A0D28442969726563742074726108
:104200006E736D697373696F6E0A0D284229726F40
:10421000616463617374207472616E736D6973732A
:10422000696F6E0A0D53656C656374696F6E3A2031
:10423000002563000A0D496E636F72726563742016
:104240004F7074696F6E2E000A0D4E6577206E6F89
:1042500064652049442028312D3235293A000A0D61
:10426000496E76616C6964204944000A0D526563A9
:104270006569766572206E6F646520494420283137
:104280002D3235293A000A0D4D6573736167653A21
:1042900020005359534552523A2025782C2025733B
:1042A0000075617200756169005069634F53207633
:1042B000352E342F5047313830323232412D43437E
:1042C000313335305F4C41554E4348584C2C2028F3
:1042D0004329204F6C736F6E657420436F6D6D754D
:1042E0006E69636174696F6E732C20323030322DC9
:1042F00032303138004C6566746F766572205241F9
:104300004D3A20256420627974657300737400004F
:104310008060300080603800106018000F4010206E
:1043200000406930004071300860B8000040C9604A
:104330000040D1600040D9600040E1608063090026
:10434000806BF100002040208060480080605000B9
:104350000060A0007374617465007574206100735F
:1043600077006164647600696F006D616C31006D87
:10437000616C67006B7069006D616C630030313295
:1043800033343536373839414243444546746376D1
:10439000303100646973706F7365207365730064F6
:1043A0006973706F7365207068790074637630325A
:1043B000007463763033007463763034007463764F
:1043C00030350074637630360074637631300074B3
:1043D0006376313100746376313600746376313739
:1043E0000074637631380074637632330074637618
:1043F000323200746376323600746376323700747A
:104400006376323800746376323900746376333001
:1044100000746376333100746376333200746376EC
:10442000333300746376333400999A9B9C00000DFB
:10443000000E63633133206F700072743100485591
:104440005020256C7820256C780068616E672069A3
:1044500063300048555020256C7820256C78202545
:104460006C780072743200424144205258006363F9
:10447000313320707900636331330063633133205B
:104480006D62004343313335303A2025642C2025BA
:10449000642C20256400C004C312C5184418C92424
:1044A000CE32D8582BBC0000A36100007F14071344
:1044B0004D00F1242E1F133FB00A3F0007FF0000FC
:1044C000304000400140034007400F404F40CF4084
:1044D000CF41CF43CF47CF4FCF3FCF2FCF1FCF0FAE
:1044E000000000000F00080000003F000000400036
:1044F0003F000000040068000E00DC0006004300DE
:104500001A00050000000000020000003F0000004B
:1045100000000400C00000000400C000000007000C
:1045200050C00091007070C0009100708231210075
:10453000319110B10070018101B100A1823132913D
:1045400010B101911110418141224F40F1060070DC
:1045500051C0019130181039833108D01831416FA2
:104560003100319110B1831414165B68007025106E
:1045700050C00091F4C3C0C02014036F3110410437
:1045800022C082312100319110B1633931104104D0
:1045900082C082312100319110B163393110A2C043
:1045A00082312100319110B150101531051405925E
:1045B00000703F6452C0311031066131C102426463
:1045C00012C13110213971065131E102426400708B
:1045D0008A65996588C0208250398039001E9F40C5
:1045E00041C001301814181A89C0308260398039EE
:1045F000001EA94041C001301914191A3C643691BB
:1046000010B1349110B154B0007154A064B0F08076
:104610000022AF404012B09032B053825339533928
:1046200085643F6411C122C1426470C1C26811C176
:10463000C2C0426470C1C76850C00091277298928E
:104640001516141642105310F0C121823131313940
:104650008139313151B070B272652772999270B25E
:1046600062107310F0C331822131213981391B105E
:104670007265E2C08231608280318039020061B0AF
:104680000071329110B151A061B0277230C2F3684D
:1046900000008012B09032B0007050C000912772BC
:1046A000999262107310F0C331822131213981391E
:1046B00051B070B27E652772989270B2421053105A
:1046C000F0C1218231313139813931311A107E65A1
:1046D00051A061B02772B0C018693F6401C122C106
:1046E000426401C1C2C04264151A3C64359110B1E4
:1046F00053828564C012B09032B000703F6472C2C1
:1047000081C0426422C111C1426402C011C142642D
:1047100062C031C3426462C311C1426402C311C1A9
:104720004264538253398564E2C347641122404195
:1047300042C281C8426452C211C1426472C2E1CE17
:10474000426402C281C8426402C201C84264B0C06D
:10475000546900703F6442C201C8426452C211C031
:10476000426472C2E1C0426402C001C1426462C0DC
:1047700001C3426422C101C1426462C301C14264F7
:1047800002C301C1426453828564007061B000714C
:104790001214231C7A4D339110B10070329110B174
:1047A0007269007061B000711318321C8649329131
:1047B00010B10070339110B17E690070C2C04764BF
:1047C0001510C2C01216476441311514C0C08031A3
:1047D00005145410A07804040070E6C0863101CCA2
:1047E000161467106182F0C3010417140070067379
:1047F00005720B720E7250B00071818060B050A0D3
:1048000092804122C3458080F1C11004301601110D
:104810000114016CD661D761D861D961DA61DB61BD
:10482000DC61DE61E061E261E461366339639180FD
:10483000F2C0210421318280422A12143216011161
:104840002114016CEE610B62F4613963EE610B625D
:10485000F4613963E661E661E661E661E661E661BD
:104860009464E661F964E6612A65E6615665E6618D
:104870004667E6611012B0900E7206730572101250
:104880003090A761F0CF3C67D4C103C0C0C354646B
:1048900040785091507810926078209270783092E1
:1048A0008078409290786092307890911082403970
:1048B000F00601101031101400924267E661BCA0AE
:1048C000E2A054A0F08050221546408000222B47E1
:1048D0000D6240A02D828D318D391082F1C01004FF
:1048E00009101A824A391A041082803910040E10F5
:1048F000AB10BC10C21063642972E0CF3C6713B0E8
:1049000003B0C86653B050B054B064B013B0A566DD
:104910001082E0223846AE660071418001222B47AA
:10492000F08010224B46F022184764B03122384202
:1049300063B0CE661082E02238467066386264B09A
:104940006F818F318F3DD0DFFF923C6700714180D6
:1049500001222B4764B0F0805022654263B011827F
:10496000C1226046CE6605671182D122524670662A
:104970005262618172818131813D8231823DC0EF1D
:10498000F19202933C670B62B081C091D381978210
:1049900090A2D3187F4EF30B1316E31CA44AC391C5
:1049A000E3813B149062BA1C8B46231E8B4AE31CA6
:1049B0008B4E90B207228B4290A21B1A9662E31C88
:1049C000A44AC391E3813B18AB1CA04E9B1CA24A96
:1049D000BC1CA442B2101082D0229D42F080102252
:1049E000A4466364A566A462AB1094629B109462B3
:1049F00000703082F1C0100463B00071A86ABC106E
:104A0000E0B00070B281C291D2810182121851814E
:104A1000121841828131813D121CBF4AE2B032B08E
:104A2000B0DFF2923C67F1C72114C34E12C8629105
:104A3000729131B0E1B0007008C006C000C860914A
:104A4000709100700182B081C091D08110185181A5
:104A500010180614E18042828231823D201CE44A13
:104A6000E2B02122E84632B00510A0DFF5923C67A3
:104A70002122E842E2A032B031824139F0C0010483
:104A8000011EF642181610C01030081C04476010B2
:104A9000103C0610F1C76114FA4E16C86691718178
:104AA0008131813D161C014B769131B006C008C0A2
:104AB000007061818131813D408280390118F11C93
:104AC000174B0114B080C0221747BCB033B090EF31
:104AD000F1920F933C67007003A063B064B0EFB035
:104AE00056650071408000222B4764B02A65EFA014
:104AF0000071408000222B4764B003B0386201820D
:104B000062818231823D80EFF19202933C6703A083
:104B10005665E661A2806364E66150B00071E661AB
:104B2000E092D08200223D47C0B20070A080F02207
:104B3000594330B002C1623101C0A080001E52430F
:104B4000F0225343A0F56031603953632010101AEE
:104B5000136F236E11161216546B0070AD040021F2
:104B6000490400217D040021810400211105002158
:104B70009105002141060021F8B51047F8B50E4611
:104B800000210125AD0430470A48037800F00FF8F2
:104B90009B070BD0124C2078FF2807D0FF212170F3
:104BA0000E490F24240220436031C882F8BDF8B5B5
:104BB000014800476B020021E54C0000094801E074
:104BC0000848000C064C05492278FF2A01D1CA7A10
:104BD00022706031C8827046801C00470062084025
:104BE000A4060021070F0808F0B4084770B5034673
:104BF0001546012906D0002906D0114A2846FFF79C
:104C0000BBFF70BD0F4800E00F480524834203D866
:104C10004008641E002CF9DCE34001204003181812
:104C2000820B012907D00649002380312846FFF76F
:104C3000A5FFE0B270BD0249044B6C31F6E70000FD
:104C4000835C0000A0BC862300830D237406002132
:104C5000F8B51A4E0546716B1948CC09E401002DD0
:104C600011D01849097802290FD0007B044372B68D
:104C70000120154F4002B847114820380088C1096B
:104C8000C90704D016E0C07AF0E7407BEEE70F4991
:104C90007463CC61400AC0070CD001208003316BE3
:104CA000002D01D0014300E08143084631630749EC
:104CB000403948630020B84762B6F8BD8002002141
:104CC000880000219B0200217B3F000040400440FF
:104CD00010B5224A0021516121498968C90009D4CF
:104CE0002149204BCA0598424B6B01D8134300E081
:104CF00093434B631D49FFF777FF10BD38B51A4D3D
:104D0000287F002827D11A480088C009C00722D16F
:104D1000124C606900281ED1684600F045F86846CC
:104D20000078012817D168464078102813D208204F
:104D30006061686A4009400120600E4A0021D1622A
:104D40000D4A02211160012108432060032108431C
:104D50006862206038BD0948804738BD0040044083
:104D6000180000210000930880020021CF68000095
:104D7000680000210011044080E200E0C33B000015
:104D80000749002800D00420064A72B60978C907EE
:104D900001D0105800E0802062B640B27047000099
:104DA0006B0200215860044003B40148019001BD2A
:104DB000A56F000000000000010003000A001F00B2
:104DC0005900EB003902EA04F9099712EB1FA132EE
:104DD000784A0A66FA828C9E63B617C964D6EDDEFD
:104DE000C1E3E0E5FF0000000B00C5120700E02D65
:104DF0000F000080706C75675F6E756C6C2074635B
:104E0000765F6F70655F6E756C6C00002128000026
:104E1000C9270000ED270000112800001928000014
:104E20001D280000000000000100000000202020DC
:104E3000202020202020282828282820202020204A
:104E4000202020202020202020202020208810101A
:104E50001010101010101010101010101004040476
:104E60000404040404040410101010101010414134
:104E70004141414101010101010101010101010122
:104E80000101010101010101101010101010424236
:104E900042424242020202020202020202020202F2
:104EA0000202020202020202101010102000000092
:104EB00000000000000000000000000000000000F2
:104EC00000000000000000000000000000000000E2
:104ED00000000000000000000000000000000000D2
:104EE00000000000000000000000000000000000C2
:104EF00000000000000000000000000000000000B2
:104F000000000000000000000000000000000000A1
:104F10000000000000000000000000000000000091
:0D4F20000000000000000000000000000084
:104F2D0006E48713053800009C00002000000000F7
:104F3D00000300000BC604048000330400200000B1
:104F4D000A08000000000000000000000000000042
:104F5D000000000000010200030800000000000036
:104F6D0000000000000164030000000000000000CC
:104F7D0007380000000000000000000000012103C0
:104F8D000F0080002404A00008002BBCB4000020FA
:104F9D0064030080050000000238000000000000DE
:104FAD000000000000011888DE510B937DAABB01A3
:104FBD0000000000000000000000000001380000AB
:104FCD0000000000000000000001181EDE510B93D0
:104FDD00000000000718000038403700A3840600C9
:104FED002040007F64404000030507B123053305D1
:104FFD008305480A0306B87A02009F84020044C75D
:10500D0003040102638410004302B0040200DF7D3B
:10501D00838803008460F13588601A418C601382A7
:08502D00A388FB00FFFFFFFF59
:020000021000EC
:10FFA80000008001100088FFFDFF58003AFFBFF3F2
:10FFB800FFFFFFFFFFFFFFFFFFFFFFFFFFFFFFFF49
:10FFC800FFFFFFFFFFFFFFFFFFFFFFFFFFFFFFFF39
:10FFD800FFFFFF00FFFFFFFF00FFFFFFC500C5FF9A
:10FFE800000000FF00000000FFFFFFFFFFFFFFFF12
:08FFF800FFFFFFFFFFFFFFFF09
:0400000300001C05D8
:00000001FF
